:020000040000FA
:1000000000030010C9020000CD020000CF02000072
:10001000D1020000D3020000D50200000000000061
:10002000000000000000000000000000D7020000F7
:10003000D902000000000000DB020000B501000052
:10004000DF020000DF020000DF020000DF0200002C
:10005000DF020000DF020000DF020000DF0200001C
:10006000DF020000DF020000DF020000DF0200000C
:10007000DF020000DF020000DF0200006D08000068
:10008000DF020000DF020000DF020000DF020000EC
:10009000DF020000DF020000DF020000DF020000DC
:1000A000DF020000DF020000DF020000DF020000CC
:1000B0004104000013040000E5030000B703000042
:1000C00000F002F800F040F80CA030C808382418FE
:1000D0002D18A246671EAB4654465D46AC4201D180
:1000E00000F032F87E460F3E0FCCB6460126334272
:1000F00000D0FB1AA246AB4633431847FC0E000063
:100100001C0F0000103A02D378C878C1FAD8520701
:1001100001D330C830C101D504680C6070470000BD
:100120000023002400250026103A01D378C1FBD813
:10013000520700D330C100D50B6070471FB5C046D1
:10014000C0461FBD10B510BD00F00EFF1146FFF7F1
:10015000F5FF00F059FD00F026FF03B4FFF7F2FFB2
:1001600003BC00F02BFF000070B505460C46164698
:10017000204600F05FFC70BD704710B50446204675
:1001800000F0A4FC10BD10B500F0A4FC10BD10B52B
:100190000446002C06D16006010E0022104600F035
:1001A0009EFC06E06000401CC1B20022104600F038
:1001B00096FC10BD3D480068401C3C4908607047F3
:1001C00010B500203949086000F0F5FD7D21C90017
:1001D0003748006800F018FE04463648844200D9CB
:1001E0000EE02002000A401E334948610321081F27
:1001F00000F023F80020304988610720086100BF23
:1002000010BD2A4800687047284A116800BF274A75
:100210001268521A8242FAD9704700BFBFF34F8F5B
:1002200026482749C860BFF34F8F00BF00BFFEE7D5
:10023000002000BF0028FDD0704710B500281BDA51
:100240001F4A1C3203071B0F083B9B089B00D25818
:100250008307DC0EFF23A3409A438B071B0E840702
:10026000E40EA3401A43164B1C330407240F083C2A
:10027000A408A4001A5118E0124A03231B02D21842
:1002800083089B00D2588307DC0EFF23A3409A43C8
:100290008B071B0E8407E40EA3401A43094B03246B
:1002A00024021B198408A4001A5110BD400000103C
:1002B00084000010FFFFFF0000E000E00400FA05EA
:1002C00000ED00E000E100E008480047FEE7FEE73F
:1002D000FEE7FEE7FEE7FEE7FEE7FEE7FEE7FEE7F6
:1002E00003480449024A044B70470000C100000063
:1002F000000100100003001000010010FFFFFFFFCD
:10030000002806D001280CD0022812D0032820D1C2
:1003100017E0F94AD26901238B401A43F64BDA61A0
:1003200018E0F64AD26901238B401A43F34BDA6195
:1003300010E0F34AD26901238B401A43F04BDA6193
:1003400008E0F04AD26901238B401A43ED4BDA6191
:1003500000E000BF00BF704710B502460020002A31
:1003600006D0012A0CD0022A12D0032A20D117E08D
:10037000E14B9B6901248C40234200D0012018E00E
:10038000DE4B9B6901248C40234200D0012010E009
:10039000DB4B9B6901248C40234200D0012008E004
:1003A000D84B9B6901248C40234200D0012000E0FF
:1003B00000BF00BF10BD10B5D3480068401CD24933
:1003C000086001210020FFF7C7FF0446002C08D079
:1003D000CE480068401CCD49086001210020FFF78D
:1003E0008FFF10BD10B5CA480068401CC84908609E
:1003F00001210846FFF7B0FF0446002C08D0C5488D
:100400000068401CC349086001210846FFF778FFD7
:1004100010BD10B5C0480068401CBF4908600121EC
:100420000220FFF799FF0446002C08D0BB48006863
:10043000401CBA49086001210220FFF761FF10BD8E
:1004400010B5B7480068401CB54908600121032079
:10045000FFF782FF0446002C08D0B2480068401C19
:10046000B049086001210320FFF74AFF10BD10B515
:10047000AD48006840210843AB490860AB480068BC
:10048000C008C000A9490860084600680121084367
:10049000A64908601F2000F0DAF91E2000F0D7F905
:1004A0001D2000F0D4F91C2000F0D1F910BD70B56A
:1004B000049C002806D0012838D002286AD00328DE
:1004C0007BD19CE0002A18D18B4D6D6801268E40AF
:1004D000B543894E7560002B07D13546AD680126BE
:1004E0008E40B543844EB5600EE0834DAD68012665
:1004F0008E403543804EB56006E07F4D6D68012625
:100500008E4035437C4E7560002C07D17A4DED68E6
:1005100001268E40B543784EF56006E0764DED68D5
:1005200001268E403543744EF5609DE0002A18D1B7
:10053000724D6D6801268E40B543704E7560002B7C
:1005400007D13546AD6801268E40B5436B4EB56088
:100550000EE06A4DAD6801268E403543674EB560AA
:1005600006E0664D6D6801268E403543634E75602A
:10057000002C07D1614DED6801268E40B5435F4EDA
:10058000F56006E05D4DED6801268E4035435B4E1B
:10059000F56069E0002A19D1594D6D6801268E4039
:1005A000B543574E7560002B08D13546AD6801261E
:1005B0008E40B543524EB5600FE054E0504DAD68EB
:1005C00001268E4035434E4EB56006E04C4D6D68B9
:1005D00001268E4035434A4E7560002C07D1484DA8
:1005E000ED6801268E40B543454EF56006E0444D6A
:1005F000ED6801268E403543414EF56034E0002A17
:1006000018D1404D6D6801268E40B5433D4E756052
:10061000002B07D13546AD6801268E40B543394ED3
:10062000B5600EE0374DAD6801268E403543354E3E
:10063000B56006E0334D6D6801268E403543314E7E
:100640007560002C07D12F4DED6801268E40B54313
:100650002C4EF56006E02B4DED6801268E403543AB
:10066000284EF56000E000BF00BF70BD002806D036
:1006700001280CD0022812D0032820D117E01E4AEE
:10068000126901238B401A431B4B1A6118E01B4A65
:10069000126901238B401A43184B1A6110E0184A63
:1006A000126901238B401A43154B1A6108E0154A61
:1006B000126901238B401A43124B1A6100E000BFFC
:1006C00000BF7047002806D001280CD002282FD088
:1006D00003283DD134E0084A126901238B409A4334
:1006E000054B1A6135E0054A126901238B409A4394
:1006F000024B1A612DE00000008000500080015084
:1007000000800250008003502000001030000010D4
:1007100024000010340000102800001038000010E1
:100720002C0000103C0000108080044080400440F9
:100730004A4A126901238B409A43484B1A6108E0E8
:10074000474A136901228A409343454A136100E0F6
:1007500000BF00BF704702469000424B1B5801206B
:10076000884080001858704730B513468B4084008D
:100770003C4D2D5901248C40A4002B5130BD30B587
:10078000002A11D08300374CE3580124E4031B19DD
:100790001B6801248C4023438400324D2C590125D1
:1007A000ED036419236010E083002E4CE35801240C
:1007B000E4031B191B6801248C40A3438400294DCA
:1007C0002C590125ED036419236030BD30B5044672
:1007D0000D46012229462046FFF7C6FF30BD30B541
:1007E00004460D46002229462046FFF7BDFF30BDD6
:1007F00030B504460D4629462046FFF7ACFF30BD14
:1008000070B504460D461646012E1AD1A0001549B2
:100810000858D103401800680121A940084210D1AE
:1008200029462046FFF797FF002805D100222946D8
:100830002046FFF799FF04E0012229462046FFF7F2
:1008400093FF324629462046FFF799FF70BDC20646
:10085000D20E01219140044A11607047008002507D
:1008600000800350E80F000000E100E070B50120B7
:1008700080074068C5B26807400F72D1E8100300D6
:1008800000F0A3FB1ACAD0D0D0D0D0D0D0D0D0D0D6
:10089000D00E1720262C4B6469C47088A0B8BED037
:1008A000FF20A5490870042001070860082088611E
:1008B000BEE0FF20A049087024200107086008203E
:1008C0008861B5E004200107086008208861AFE076
:1008D00024200107086008208861A9E0FFF753FC85
:1008E000044695480078FF2805D1934804700020FD
:1008F000924908600BE02246904801688E480078D3
:1009000000F08AF98D480068401C8C49086004207A
:1009100001070860082088618AE0FFF734FC04467C
:1009200085480078FF280BD0224684480168824819
:10093000007800F071F981480068401C7F49086028
:100940000420010708600820886171E00C20012163
:10095000890788616CE0042001070860082088612D
:1009600066E05FE074480078FF280DD073480168A6
:100970007148007800F057F90646FFF7FEFB6F4814
:100980000068401C6D4908600420010708600820C9
:1009900088614DE068480078FF280DD067480168FD
:1009A0006548007800F03FF90646FFF7E6FB63482C
:1009B0000068401C61490860242001070860082085
:1009C000886135E05C480078FF280DD05B480168FD
:1009D0005948007800F027F90646FFF7CEFB574844
:1009E0000068401C55490860042001070860082081
:1009F00088611DE00420010708600820886117E075
:100A00000420010708600820886111E00420010724
:100A10000860082088610BE01420010708600820A6
:100A2000886105E00820C10688614820086000BF91
:100A300000BF70BD4249496802221143404A5160DB
:100A40003F4980310968202211433D4A80321160BC
:100A50003C49096B890989013A4A11631146096BBE
:100A600001221143374A11631146496B89098901F3
:100A700051631146496B01221143324A51636C2183
:100A8000120491612F49096B521511432D4A1163CC
:100A90001146496B521511432A4A516320214A06D7
:100AA00051611161002802D14100D16004E0410090
:100AB000491C01229207D1600F2101228A40224B5A
:100AC0001A6000BF44210A0711607047012189079D
:100AD00088607047012080078068C0B27047034675
:100AE000002B03D101208007C16001E07F20704707
:100AF00000BF0020FBE730B5002A0CD00124A4077A
:100B000024680825AC43ED062C602C462468082593
:100B10002C43ED062C60002B0CD00124A407246884
:100B20000425AC432D072C602C46246804252C4357
:100B30002D072C6030BD00000000001004000010E4
:100B4000008004400040044000E100E010B573481C
:100B5000C07A00280BD1714A917A507AFFF73FFE94
:100B60006E4A917A507A0022FFF74AFE19E06B4AEA
:100B7000917A507AFFF733FE684A917A507A0122CF
:100B8000FFF73EFE6548007B002805D0634A917A56
:100B9000507AFFF71BFE04E0604A917A507AFFF723
:100BA0001EFE10BD0546002400BF0DE05C4A115D2D
:100BB0005C4A105DFFF713FE594A115D594A105DFA
:100BC0000122FFF71DFE641C1D2CEFD31BE0002447
:100BD00006E0534A115D534A105DFFF7F7FD641CB0
:100BE0001D2CF6D32846FFF70FFB002406E04C4AE5
:100BF000115D4C4A105DFFF7F2FD641C1D2CF6D30D
:100C00002846FFF701FBE2E700BFFFF7D9FAFFF73D
:100C10002EFC6420FFF7C6FF43180E2B02D23F4B79
:100C20001B185A5470470246FF2053180E2B02D24D
:100C30003A4B9B18585C704710B50446012C02D003
:100C4000022C14D109E002210120FFF7C8FD012286
:100C500002211046FFF7D4FD09E004210320FFF72D
:100C6000BEFD012204210320FFF7CAFD00BF00BF23
:100C700010BD10B50446012C02D0022C0CD105E0A9
:100C8000002202210120FFF7BBFD05E00022042124
:100C90000320FFF7B5FD00BF00BF10BD10B504462F
:100CA000012C02D0022C14D109E002210120FFF70F
:100CB0009FFD002801D0012010BD0020FCE7042189
:100CC0000320FFF795FD002801D00120F4E7002064
:100CD000F2E70020F0E710B50446002C12D0032103
:100CE0000020FFF773FD012203210020FFF788FD9C
:100CF00009210120FFF76AFD012209211046FFF7B3
:100D00007FFD09E0002203211046FFF779FD002254
:100D100009210120FFF774FD10BD00008C000010B8
:100D200061000010440000103149324A1160002176
:100D3000314A11600121516000215160012151604F
:100D400000BF2D494968C907C90FFAD02A4940395F
:100D50008868400A40022021014303221143264AA9
:100D6000403A91602549896B80229143234A9163DF
:100D700000BF21494039C968C907C90FF9D003210B
:100D80001D4A116301215163002151630121516307
:100D900000BF1949496BC907C90FFAD00121164A8A
:100DA0009163144909688900154A11601146096860
:100DB000144A1160704700B500200F49403908629D
:100DC0000E48806B202188430C498863002300E093
:100DD0005B1CFF2BFCD9FFF7A7FF074840300068DA
:100DE00001210904084304494031086000BD0000A6
:100DF000001BB700800000104080044000820440C7
:100E00008400001088000010002203098B422CD3BC
:100E1000030A8B4211D300239C464EE003460B434A
:100E20003CD4002243088B4231D303098B421CD3AC
:100E3000030A8B4201D394463FE0C3098B4201D39E
:100E4000CB01C01A524183098B4201D38B01C01AD6
:100E5000524143098B4201D34B01C01A524103094D
:100E60008B4201D30B01C01A5241C3088B4201D3FC
:100E7000CB00C01A524183088B4201D38B00C01AA9
:100E8000524143088B4201D34B00C01A5241411AD0
:100E900000D201465241104670475DE0CA0F00D0B3
:100EA0004942031000D34042534000229C460309AC
:100EB0008B422DD3030A8B4212D3FC22890112BA32
:100EC000030A8B420CD3890192118B4208D389010A
:100ED00092118B4204D389013AD0921100E0890922
:100EE000C3098B4201D3CB01C01A524183098B4203
:100EF00001D38B01C01A524143098B4201D34B01EC
:100F0000C01A524103098B4201D30B01C01A52414E
:100F1000C3088B4201D3CB00C01A524183088B42D5
:100F200001D38B00C01A5241D9D243088B4201D35E
:100F30004B00C01A5241411A00D201466346524149
:100F40005B10104601D34042002B00D54942704748
:100F500063465B1000D3404201B50020C046C04646
:100F600002BD704770477047754600F023F8AE46E3
:100F7000050069465346C008C000854618B020B534
:100F8000FFF7AEF960BC00274908B6460026C0C589
:100F9000C0C5C0C5C0C5C0C5C0C5C0C5C0C5403D31
:100FA00049008D4670470446C046C0462046FFF7BC
:100FB000D4F80000004870479C0000100149182038
:100FC000ABBEFEE726000200704730B47446641ED4
:100FD0002578641CAB4204D3635D5B00E31830BC2E
:100FE00018471D46F8E700000000005000000150BF
:100FF0000000025000000350181000000000001014
:101000008C00000004010000A41000008C000010FF
:101010007402000020010000FF000000FFFFFFFF3E
:1010200000000000000000000000000000000000C0
:1010300000000000000000000000000000000000B0
:1010400000000000000000000000000000000000A0
:101050000000000000000000000000000202030089
:10106000000202020000010200010102020200016E
:101070000202030103010102030405050607090A30
:101080000208090A0B0B0001010807020800060309
:1010900005020B0403010000001BB700001BB70092
:0410A000001BB7007A
:04000005000000C136
:00000001FF
