:020000040000FA
:10000000C00200109D010000A1010000A30100003A
:10001000A5010000A7010000A901000000000000E8
:10002000000000000000000000000000AB01000024
:10003000AD01000000000000AF010000610C0000F5
:10004000B3010000B3010000B3010000B3010000E0
:10005000B3010000B3010000B3010000B3010000D0
:10006000B3010000B3010000B3010000B3010000C0
:10007000B3010000B3010000B3010000950D0000C2
:10008000B3010000B3010000B3010000B3010000A0
:10009000B3010000B3010000B3010000B301000090
:1000A000B3010000B3010000B3010000B301000080
:1000B000D5070000A7070000790700004B070000E4
:1000C00000F002F800F03EF80CA030C80838241800
:1000D0002D18A246671EAB4654465D46AC4201D180
:1000E00000F030F87E460F3E0FCCB6460126334274
:1000F00000D0FB1AA246AB463343184794130000C6
:10010000B4130000103A02D378C878C1FAD8520765
:1001100001D330C830C101D504680C6070470000BD
:100120000023002400250026103A01D378C1FBD813
:10013000520700D330C100D50B6070471FB51FBDFB
:1001400010B510BD01F05CF91146FFF7F7FF00F0A4
:10015000C5FF01F074F903B4FFF7F2FF03BC01F02F
:100160007BF9000070B505460C46164602E00FCC40
:100170000FC5103E102EFAD2082E02D303CC03C5B1
:10018000083E042E07D301CC01C5361F03E02178B9
:100190002970641C6D1C761EF9D270BD084800479A
:1001A000FEE7FEE7FEE7FEE7FEE7FEE7FEE7FEE727
:1001B000FEE7FEE703480449024A044B704700008B
:1001C000C1000000C0000010C0020010C0000010FC
:1001D0003249334A11600021324A116001215160D5
:1001E000002151600121516000BF2E494968C907B3
:1001F000C90F0029F9D02B4940398868400A4002CC
:100200002021014303221143264A403A91602649A6
:10021000896B80229143244A916300BF2149403970
:10022000C968C907C90F0029F8D003211D4A116305
:1002300001215163002151630121516300BF19491C
:10024000496BC907C90F0029F9D00121154A9163EB
:10025000134909688900154A116011460968144A52
:100260001160704700B500200E49403908620E4801
:10027000806B202188430C498863002300E05B1CCD
:10028000FF2BFCD9FFF7A4FF06484030006801218E
:100290000904084303494031086000BD001BB70052
:1002A00044000010408004400082044048000010D8
:1002B0004C00001001E004C0091F0429FBD28B0789
:1002C00001D50280801CC90700D002707047002948
:1002D0000BD0C30702D00270401C491E022904D370
:1002E000830702D50280801C891EE3E70022EEE727
:1002F0000022DFE77047704770477047FFFFFFFF3E
:10030000F8B5054601266807400F002868D1E810B7
:100310000C38030001F0A6F80D080964640D276489
:1003200064633C3B4F62640000BFFF20CC4908700F
:1003300057E000F07EFC0446C9480078FF2805D14C
:10034000C74804700020C74908600BE02246C54832
:100350000168C348007800F0E2FEC2480068401C13
:10036000C04908603DE000F064FC0446BC480078E9
:10037000FF280BD02246BB480168B948007800F03E
:10038000CEFEB8480068401CB649086029E000BFAE
:10039000B3480078FF280DD0B2480168B048007813
:1003A00000F0C4FE074600F03EFCAE480068401C6A
:1003B000AC49086015E0AA480078FF280DD0A9488C
:1003C0000168A748007800F0B1FE074600F02BFC5A
:1003D000A4480068401CA349086002E001E000E076
:1003E00000BF00BF3046F8BD10B500F05FFC10BD87
:1003F00010B500209C4908709C4908709C49087001
:10040000022000F0B9FE012000F099FE002000F06B
:10041000E5FE00209749087002204870964A0021A6
:10042000964800F0F7FB002000F007FC012000F0E8
:10043000D5FE10BDF8B504460D4616461F46904839
:1004400004608C48C670077104208A498870084689
:100450004571FFF7CDFFF8BD70B5894804680025E8
:1004600081480078002806D001281ED002283BD001
:1004700003287CD167E0022000F093FE002813D00F
:100480000120794908707F207A49087008227C4849
:10049000006800F0C7FE012000F0A0FE7F2000F001
:1004A000CCFB012000F04BFEBCE0022000F079FE06
:1004B000002808D1FFF79CFF08226E4970480068A9
:1004C00000F0B0FE0FE020787F280CD0207869493A
:1004D00008700220644908706649087800F0ADFB96
:1004E000012000F049FE9DE0022000F05AFE0028A5
:1004F00008D1FFF77DFF08225E496148006800F0DF
:1005000091FE1FE060780221084000281AD160782F
:10051000C007C00F5749487008464078C007C00F51
:10052000002801D100F05AFE0822524954480068C0
:1005300000F078FEFFF758FF5249086001250320BC
:10054000494908706EE049480078002809D0FFF753
:100550004BFF4D490968401A0A2802D90020434937
:10056000087043480078002811D1022000E050E0D4
:1005700000F017FE00280AD13B490870FFF738FF4A
:1005800008223C493E48006800F04CFE4AE03748EB
:100590000078002804D1012000F003FE00280AD1D1
:1005A00033480078002810D101203149087002201A
:1005B00000F0C5FD09E02E480078002805D0002095
:1005C0002B490870022000F0D7FD2A48407880218E
:1005D0000840002815D060780840002807D1254839
:1005E0004078884323494870084640786070214825
:1005F0000078207006221F49891CA01C00F012FE02
:1006000005E008221B491E48006800F00BFE01258A
:1006100008E0FFF7EDFE082216491948006800F0CF
:1006200001FE00BF00BF284670BD10B51448046825
:1006300010484078802108430E494870082220461F
:1006400000F0F0FD022000F07AFD0120084908705A
:10065000FFF7CAFE0C49086001200449087010BD6C
:100660000000001004000010080000100900001035
:100670000A0000101400001001030000A086010011
:100680001C0000100C00001010000010002806D004
:1006900001280CD0022812D0032820D117E0F74AF5
:1006A000D26901238B401A43F44BDA6118E0F44A13
:1006B000D26901238B401A43F14BDA6110E0F14A11
:1006C000D26901238B401A43EE4BDA6108E0EE4A0F
:1006D000D26901238B401A43EB4BDA6100E000BF83
:1006E00000BF704710B502460020002A06D0012A3C
:1006F0000DD0022A14D0032A24D11AE0DF4B9B69C3
:1007000001248C402340002B00D001201BE0DC4B57
:100710009B6901248C402340002B00D0012012E073
:10072000D84B9B6901248C402340002B00D0012032
:1007300009E0D54B9B6901248C402340002B00D05D
:10074000012000E000BF00BF10BD10B5CF48006819
:10075000401CCE49086001210020FFF7C3FF04467A
:10076000002C08D0CA480068401CC9490860012113
:100770000020FFF78BFF10BD10B5C6480068401C75
:10078000C449086001210846FFF7ACFF0446002C6D
:1007900008D0C1480068401CBF49086001210846D4
:1007A000FFF774FF10BD10B5BC480068401CBB4982
:1007B000086001210220FFF795FF0446002C08D0B5
:1007C000B7480068401CB649086001210220FFF7C5
:1007D0005DFF10BD10B5B3480068401CB14908600A
:1007E00001210320FFF77EFF0446002C08D0AE480D
:1007F0000068401CAC49086001210320FFF746FF58
:1008000010BD10B5A948006840210843A7490860F9
:10081000A7480068C008C000A549086008460068ED
:1008200001210843A24908601F2000F0DBF91E20C7
:1008300000F0D8F91D2000F0D5F91C2000F0D2F905
:1008400010BD70B5049C002806D0012838D00228BD
:100850006AD003287BD19CE0002A18D1874D6D68AF
:1008600001268E40B543854E7560002B07D1354675
:10087000AD6801268E40B543804EB5600EE07F4DD9
:10088000AD6801268E4035437C4EB56006E07B4D59
:100890006D6801268E403543784E7560002C07D177
:1008A000764DED6801268E40B543744EF56006E046
:1008B000724DED6801268E403543704EF5609DE027
:1008C000002A18D16E4D6D6801268E40B5436C4EDE
:1008D0007560002B07D13546AD6801268E40B543C3
:1008E000674EB5600EE0664DAD6801268E4035431B
:1008F000634EB56006E0624D6D6801268E4035435B
:100900005F4E7560002C07D15D4DED6801268E406D
:10091000B5435B4EF56006E0594DED6801268E400B
:100920003543574EF56069E0002A19D1554D6D6881
:1009300001268E40B543534E7560002B08D13546D5
:10094000AD6801268E40B5434E4EB5600FE054E0D1
:100950004C4DAD6801268E4035434A4EB56006E0E9
:10096000484D6D6801268E403543464E7560002C1B
:1009700007D1444DED6801268E40B543414EF560E8
:1009800006E0404DED6801268E4035433D4EF56052
:1009900034E0002A18D13C4D6D6801268E40B543E5
:1009A000394E7560002B07D13546AD6801268E4063
:1009B000B543354EB5600EE0334DAD6801268E402F
:1009C0003543314EB56006E02F4D6D6801268E40EF
:1009D00035432D4E7560002C07D12B4DED68012657
:1009E0008E40B543284EF56006E0274DED680126A0
:1009F0008E403543244EF56000E000BF00BF70BD5F
:100A0000002806D001280CD0022812D0032820D1BB
:100A100017E01A4A126901238B401A43174B1A61D7
:100A200018E0174A126901238B401A43144B1A61CC
:100A300010E0144A126901238B401A43114B1A61CA
:100A400008E0114A126901238B401A430E4B1A61C8
:100A500000E000BF00BF7047002806D0012829D061
:100A600002282FD003283DD134E0044A1269012323
:100A70008B409A43014B1A6135E000000080005022
:100A800000800150008002500080035020000010C0
:100A90003000001024000010340000102800001066
:100AA000380000102C0000103C0000108080044032
:100AB00080400440524A126901238B409A43504BB4
:100AC0001A6110E04F4A126901238B409A434D4B43
:100AD0001A6108E04C4A136901228A4093434A4A4A
:100AE000136100E000BF00BF704702469000474B13
:100AF0001B580120884080001858704730B51346B5
:100B00008B408400414D2D5901248C40A4002B5171
:100B100030BD30B5002A11D083003C4CE35801248D
:100B2000E4031B191B6801248C4023438400374DC8
:100B30002C590125ED036419236010E08300334C28
:100B4000E3580124E4031B191B6801248C40A343D0
:100B500084002E4D2C590125ED036419236030BD0E
:100B600030B504460D46012229462046FFF7C6FF50
:100B700030BD30B504460D46002229462046FFF719
:100B8000BDFF30BD30B504460D4629462046FFF76F
:100B9000ACFF30BD70B504460D461646012E1BD184
:100BA000A0001A490858D103401800680121A94043
:100BB0000840002810D129462046FFF796FF00285C
:100BC00005D1002229462046FFF798FF04E00122C4
:100BD00029462046FFF792FF324629462046FFF776
:100BE00098FF70BD002809DB00BF00BFC206D20E0F
:100BF00001219140064A116000BF00BF704700000C
:100C000000800150008002500080035080140000DA
:100C100000E100E070B505460C461646204600F09F
:100C20009EF970BD704710B50446204600F0EBF900
:100C300010BD10B500F0EBF910BD10B50446002C46
:100C400006D16006010E0022104600F0E5F906E02C
:100C50006000401CC1B20022104600F0DDF910BD5A
:100C600045480068401C44490860704710B50020A2
:100C700041490860FFF7F6FA7D21C9003F48006846
:100C800000F011FB0446601E3D49884200D90CE08B
:100C9000601E3C4948610321081F00F033F8002022
:100CA000384988610720086100BF10BD32480068DC
:100CB0007047314A116800BF2F4A1268521A8242A7
:100CC000FAD9704700BF00BF00BF00BF00BFBFF32D
:100CD0004F8F00BF00BF00BF2B482C49C86000BF2A
:100CE00000BF00BFBFF34F8F00BF00BF00BF00BFFA
:100CF00000BFFDE708B50020009000BF0098002865
:100D0000FCD008BD10B5002819DB214A03231B02C3
:100D1000D21883089B00D2588307DC0EFF23A34020
:100D20009A438B071B0E8407E40EA3401A43184B0B
:100D3000032424021B198408A4001A511AE0134A40
:100D40001C3203071B0F083B9B089B00D2588307EC
:100D5000DC0EFF23A3409A438B071B0E8407E40E8F
:100D6000A3401A43094B1C330407240F083CA40872
:100D7000A4001A5110BD00004000001048000010EF
:100D8000FFFFFF0000E000E00400FA0500ED00E0D6
:100D900000E100E070B5012080074068C5B2680737
:100DA000400F002872D1E810030000F05BFB1ACA64
:100DB000D0D0D0D0D0D0D0D0D0D0D00E1720262CAC
:100DC0004B6469C47088A0B8BED0FF20A8490870E1
:100DD00004200107086008208861BEE0FF20A449C4
:100DE000087024200107086008208861B5E004200D
:100DF0000107086008208861AFE02420010708602F
:100E000008208861A9E0FFF714FF0446984800789D
:100E1000FF2805D1964804700020964908600BE031
:100E20002246944801689248007800F078F9914889
:100E30000068401C8F4908600420010708600820F2
:100E400088618AE0FFF7F5FE044689480078FF28AC
:100E50000BD02246874801688548007800F05FF98A
:100E600084480068401C834908600420010708602A
:100E70000820886171E00C200121890788616CE0FD
:100E80000420010708600820886166E05FE0784878
:100E90000078FF280DD0774801687548007800F089
:100EA00045F90646FFF7BFFE72480068401C7149CD
:100EB0000860042001070860082088614DE06C4844
:100EC0000078FF280DD06B4801686948007800F071
:100ED0002DF90646FFF7A7FE66480068401C6549E5
:100EE00008602420010708600820886135E0604818
:100EF0000078FF280DD05F4801685D48007800F059
:100F000015F90646FFF78FFE5A480068401C5949FC
:100F10000860042001070860082088611DE00420A3
:100F2000010708600820886117E0042001070860B5
:100F30000820886111E0042001070860082088610A
:100F40000BE01420010708600820886105E00820F4
:100F5000C10688614820086000BF00BF70BD4649D7
:100F6000496802221143444A51604349803109686B
:100F700020221143404A803211604049096B89099F
:100F800089013E4A11631146096B012211433B4A14
:100F900011631146496B8909890151631146496BF7
:100FA00001221143354A51636C2112049161334986
:100FB000096B52151143314A11631146496B5215A1
:100FC00011432E4A516320214A06516111610028C4
:100FD00002D14100D16004E04100491C0122920786
:100FE000D1600F21002909DB00BF00BFCB06DB0E5B
:100FF00001229A40224B1A6000BF00BF00BF44216B
:101000000A07116070470121890788607047012035
:1010100080078068C0B270470346002B03D10120CF
:101020008007C16001E07F20704700BF0020FBE720
:1010300030B5002A0CD00124A40724680825AC434D
:10104000ED062C602C46246808252C43ED062C6008
:10105000002B0CD00124A40724680425AC432D07E1
:101060002C602C46246804252C432D072C6030BDB1
:101070000000001004000010008004400040044004
:1010800000E100E010B56648C07A00280BD1644A40
:10109000917A507AFFF76DFD614A917A507A002279
:1010A000FFF778FD19E05E4A917A507AFFF761FD0B
:1010B0005B4A917A507A0122FFF76CFD5848007B19
:1010C000002805D0564A917A507AFFF749FD04E08E
:1010D000534A917A507AFFF74CFD10BD00BFFFF7DD
:1010E000C5FDFFF78EFB0D214D48FFF7FFF80123EB
:1010F0001A4610214A48FFF79DF900BF0EE0FFF79E
:10110000ABF9002803D04648007A002800D105E05A
:10111000002043490872FFF7B5FF00BFEFE743180F
:101120000D2B02D23E4B1B185A5470470246FF202B
:1011300053180D2B02D23A4B9B18585C704710B5D0
:101140000446012C02D0022C14D109E00221012016
:10115000FFF70FFD012202211046FFF71BFD09E0FA
:1011600004210320FFF705FD012204210320FFF7DE
:1011700011FD00BF00BF10BD10B50446012C02D008
:10118000022C0CD105E0002202210120FFF702FD14
:1011900005E0002204210320FFF7FCFC00BF00BF94
:1011A00010BD10B50446012C02D0022C14D109E068
:1011B00002210120FFF7E6FC002801D0012010BD2C
:1011C0000020FCE704210320FFF7DCFC002801D00D
:1011D0000120F4E70020F2E70020F0E710B5044614
:1011E000002C12D003210020FFF7BAFC01220321BA
:1011F0000020FFF7CFFC09210120FFF7B1FC0122FD
:1012000009211046FFF7C6FC09E000220321104621
:10121000FFF7C0FC002209210120FFF7BBFC10BD35
:1012200050000010F8B5042A2CD3830712D00B7895
:10123000491C0370401C521E83070BD00B78491CBD
:101240000370401C521E830704D00B78491C0370A6
:10125000401C521E8B079B0F05D0C91ADF002023AC
:10126000DE1B08C90AE0FEF77DFFF8BD1D4608C970
:10127000FD401C46B4402C4310C0121F042AF5D276
:10128000F308C91A521EF0D40B78491C0370401C95
:10129000521EEAD40B78491C0370401C012AE4D486
:1012A00009780170F8BD002203098B422CD3030A90
:1012B0008B4211D300239C464EE003460B433CD4A3
:1012C000002243088B4231D303098B421CD3030A0B
:1012D0008B4201D394463FE0C3098B4201D3CB013B
:1012E000C01A524183098B4201D38B01C01A52416B
:1012F00043098B4201D34B01C01A524103098B426F
:1013000001D30B01C01A5241C3088B4201D3CB0059
:10131000C01A524183088B4201D38B00C01A52413C
:1013200043088B4201D34B00C01A5241411A00D2EC
:1013300001465241104670475DE0CA0F00D0494255
:10134000031000D34042534000229C4603098B42C5
:101350002DD3030A8B4212D3FC22890112BA030A4D
:101360008B420CD3890192118B4208D389019211CF
:101370008B4204D389013AD0921100E08909C30954
:101380008B4201D3CB01C01A524183098B4201D356
:101390008B01C01A524143098B4201D34B01C01A41
:1013A000524103098B4201D30B01C01A5241C308B9
:1013B0008B4201D3CB00C01A524183088B4201D328
:1013C0008B00C01A5241D9D243088B4201D34B0043
:1013D000C01A5241411A00D20146634652415B1085
:1013E000104601D34042002B00D549427047634666
:1013F0005B1000D3404201B50020C046C04602BD8C
:10140000754600F025F8AE46050069465346C0080B
:10141000C000854618B020B5FEF7CCFE60BC0027A2
:101420004908B6460026C0C5C0C5C0C5C0C5C0C5B0
:10143000C0C5C0C5C0C5403D49008D46704710B508
:101440000446C046C0462046FEF785FE10BD00009B
:10145000004870476000001001491820ABBEFEE74D
:101460002600020030B47446641E2578641CAB422A
:1014700004D3635D5B00E31830BC18471D46F8E7F2
:101480000000005000000150000002500000035016
:10149000B014000000000010500000000401000023
:1014A0000015000050000010700200002001000034
:1014B000FF000000FFFFFFFF000000000000000031
:1014C000000000000000000000000000000000001C
:1014D000000000000000000000000000000000000C
:1014E00000000000000000000000000000000000FC
:1014F00000000000001BB700001BB700001BB70076
:04000005000000C136
:00000001FF
